:100000000C9467000C948F000C948F000C948F005C
:100010000C948F000C948F000C94D1000C948F00E2
:100020000C948F000C948F000C948F000C948F0014
:100030000C947D070C948F000C948F000C948F000F
:100040000C94A1070C948F000C948F000C948F00DB
:100050000C948F000C948F000C948F000C948F00E4
:100060000C948F000C948F00000000090003020024
:10007000000405080000000000000000000000016E
:10008000020408102040800102040810200102042C
:100090000810204080400404040404040404020204
:1000A000020202020303030303030202030000002F
:1000B0000023002600290000000000250028002B56
:1000C0000000000000240027002A0000660411241C
:1000D0001FBECFEFD4E0DEBFCDBF11E0A0E0B1E0A6
:1000E000EAE1F4E102C005900D92AC30B107D9F716
:1000F00021E0ACE0B1E001C01D92A33AB207E1F704
:1001000010E0C7E6D0E004C02197FE010E94F60986
:10011000C636D107C9F70E947B090C940B0A0C94D0
:100120000000DC0121E030E001C0220F4A95EAF72F
:100130008BB1922F909598233BB19BB94BE64A9592
:10014000F1F7232BFB01EE0FFF1FE60FF71F87E0F0
:1001500087E00D90000000009BB9000C2BB908F05F
:100160009BB98150B9F7000C40F487E09BB90000BF
:100170002BB931970D9079F708C09BB987E02BB95F
:1001800000009BB931970D9041F79BB90895F89401
:10019000E0E6F0E080818861808386E48083789463
:1001A00008951F920F920FB60F9211248F9381E042
:1001B00080932F018F910F900FBE0F901F90189575
:1001C00084B7877F84BF80916000886180936000DE
:1001D000109260000E94C70061E08EE00E94A608B5
:1001E00061E08FE00E94A60861E080E10E94A6081D
:1001F00062E081E10E94A60862E082E10E94A60816
:1002000061E080E00E94A60861E088E00E94A60804
:1002100061E089E00E94A60861E08AE00E94A608E9
:1002200060E089E00E94E20861E08FE00E94E2085D
:10023000EBE4F1E0118210821282339681E0E03922
:10024000F807C1F7F89440E067E170E08BE491E0D3
:100250000E94910078946AE070E081E391E00E944E
:10026000B9056AE570E081E391E00E943B0664E134
:1002700070E081E391E00E94BF0583B7817F8460D5
:1002800083BF83B7816083BF08958EE00E94100909
:1002900061E0892B09F060E08EE00E94E2080E9494
:1002A000EB0760932B0170932C0180932D019093A9
:1002B0002E01089561E088E00E94E20861E080E19B
:1002C0000E94E20861E089E00C94E20860E088E0C6
:1002D0000E94E20860E080E10E94E20860E089E0BC
:1002E0000E94E20810923001089580910F019091D0
:1002F00010011816190654F081E020911101309177
:100300001201121613061CF080E0089581E0089592
:100310001092100110920F0110921201109211010F
:1003200008950F931F93209115013091160180912C
:100330001301909114012817390791F10E94EB07DE
:1003400000911701109118012091190130911A01A3
:10035000601B710B820B930B633371058105910553
:10036000F8F020911301309114012130310509F08A
:1003700051C0809111019091120101969093120148
:100380008093110130931601209315010E94EB0711
:1003900060931701709318018093190190931A01CB
:1003A0008091130190911401019709F055C00E94AA
:1003B0007501882309F46BC00E94EB0700911701B7
:1003C000109118012091190130911A01601B710BD5
:1003D000820B930B653F714081059105B8F18091C7
:1003E0000F019091100120911101309112012130E3
:1003F0003105D1F40097C1F480911B0190911C014B
:100400008230910514F482E090E090932201809371
:1004100021011AC080910F019091100101969093D3
:10042000100180930F01AECF8130910509F09FC07C
:1004300080912101909122018530910510F401965F
:10044000E4CF81E080930E010E9488018091130126
:10045000909114010197D9F00E94EB0700911701C8
:10046000109118012091190130911A01601B710B34
:10047000820B930B6D3271408105910540F081E054
:1004800090E090932201809321010E9488012091A5
:100490001F013091200180912101909122012817A4
:1004A000390709F461C030931E0120931D018217A2
:1004B0009307ACF41816190694F481E391E00E94B6
:1004C0005107E0912101F0912201EE0FFF1FE05052
:1004D000FF4F6081718181E391E00E943B06809132
:1004E000210190912201019791F481E391E00E9412
:1004F0005107E0912101F0912201EE0FFF1FE05022
:10050000FF4F6081718181E391E00E943B06809101
:10051000210190912201823091050CF450C020916C
:100520001F0130912001281739070CF44BC080912E
:100530002101909122019093200180931F010E943C
:10054000EB0760932301709324018093250190931E
:10055000260180912101909122018230910524F0A1
:1005600090931C0180931B011F910F91089582307D
:10057000910591F420912101309122012330310520
:100580003CF02150310930932201209321015CCFAE
:1005900021E020930D0139CF03970CF455CF8091C2
:1005A0002101909122018230910524F090931C0149
:1005B00080931B01109222011092210145CF0097D8
:1005C00009F0B5CF880F991FFC01E050FF4F608103
:1005D000718181E391E00E942D07A9CFCF92DF9234
:1005E000EF92FF920F931F93CF93DF93809121019E
:1005F000909122018130910509F070C0EBE4F1E0A7
:1006000080E8118210828283339631E0E039F3076B
:10061000C1F780910E01811105C080910D018823E1
:1006200009F440C085E0F82E90E9C92E91E0D92E5A
:100630002FE7E22E0BE411E0E801E982E882EA828A
:100640002396CC16DD06C9F7F89440E067E170E028
:100650008BE491E00E949100789464E670E080E081
:1006600090E00E941C08F8011182108212820D5F36
:100670001F4FC017D107B9F7F89440E067E170E069
:100680008BE491E00E949100789464E670E080E051
:1006900090E00E941C08FA94F110CCCF10920E0149
:1006A00010920D01F89440E067E170E08BE491E076
:1006B0000E94910078940E94EB0760932701709349
:1006C00028018093290190932A01DF91CF911F91F6
:1006D0000F91FF90EF90DF90CF90089518161906B4
:1006E0006CF0EBE4F1E080E991E020E821831082F6
:1006F000128233968E179F07C9F78BCF282F22952A
:10070000220F220F207C2154EBE4F1E0DF0111964F
:100710001C9211972C9312961C921297139631E00B
:10072000A039B307A1F7059709F073CF80910C01A9
:1007300090E020EC3FEF128289130CC031831082CD
:100740009F5F33969731B9F78F5F873131F0809390
:100750000C015FCF11822083F3CF10920C0159CF8F
:100760000F931F938091210190912201039724F40C
:1007700060E089E00E94E2088091210190912201CD
:10078000039724F061E089E00E94E2088091210152
:10079000909122010397FCF480911D0190911E011C
:1007A0000397CCF00E94EB070091230110912401E4
:1007B0002091250130912601601B710B820B930B58
:1007C000603375478105910530F461E089E01F9140
:1007D0000F910C94E2081F910F910895A8950E9423
:1007E000EB07AB01BC0180912B0190912C01A091F2
:1007F0002D01B0912E0188519C4FAF4FBF4F8417F0
:100800009507A607B70710F40E94450182E10E94F0
:100810001009909314018093130180912F01882374
:10082000B1F00E94450161E08FE00E94E2088FE490
:1008300093EC0197F1F700C0000010922F010E9485
:10084000880181E090E0909322018093210181E171
:100850000E941009892B61F18091300181110EC035
:100860000E945A019FE728E381E091502040804098
:10087000E1F700C0000081E0809330010E94910107
:100880000E94EB07AB01BC018091270190912801E8
:10089000A0912901B0912A01C296A11DB11D841712
:1008A0009507A607B70710F40E94EE020C94B00358
:1008B00060E08FE00E94E2080E94660183B78160D9
:1008C00083BF889583B78E7F83BFD8CFEBE4F1E0F9
:1008D000108211821282339681E0E039F807C1F765
:1008E00081E391E00C94D90490918000907A811179
:1008F00017C09260662341F0229A90622FEF3FEF7B
:1009000030938B0020938A00909380008AE180933B
:10091000810080E49CE9909387008093860008958D
:10092000219A92682FEF3FEF30938900209388003F
:10093000E1CF0F931F93CF93DF93EC01162F042F7A
:10094000809181008A3151F580918000662319F1F0
:100950008F7D823819F5CC0FDD1F002389F020919F
:100960008400309185002938334150F02091860071
:100970003091870021503109309385002093840005
:10098000112391F0D0938900C0938800DF91CF911B
:100990001F910F9108958F778232E9F261E061270C
:1009A000812F0E947404D7CFD0938B00C0938A000C
:1009B000EDCFFC01158A148A85E090E0918780874D
:1009C0001286138A08954F925F926F927F928F9250
:1009D0009F92AF92BF92CF92DF92EF92FF920F93CE
:1009E0001F93CF93DF93CDB7DEB762970FB6F8941E
:1009F000DEBF0FBECDBF9A8B898B4B01C901330F70
:100A0000AA0BBB0B89839A83AB83BC83CA01550FA6
:100A1000AA0BBB0B8D839E83AF83B887C701FF0CE6
:100A2000AA0BBB0B89879A87AB87BC872801110F5C
:100A3000660877089C819F93AB81AF93BA81BF937F
:100A4000E981EF93AD80BE80CF80D884E984FA84B9
:100A50000B851C85A301920160E070E0CB010E9430
:100A600039096D877E878F87988BFC81FF932B8157
:100A70002F933A813F9389818F93AD80BE80CF8041
:100A8000D884E984FA840B851C85A301920164EB68
:100A900070E080E090E00E943909482DA989BA8968
:100AA0001B968C921B97ED85FE855796FC93EE93D3
:100AB000569759967C936E9358979FEF1C969C93EC
:100AC0000FB6F894DEBF0FBECDBF209194013091D8
:100AD0009501232B51F02091960130919701232B02
:100AE000C1F491E021E030E003C090E030E020E08C
:100AF000220F331FF901EC56FE4FA989BA89B18341
:100B0000A0831C969C9320919801291710F4909330
:100B10009801B9E08B1A9108E2E08E16910408F072
:100B200040E0842F62960FB6F894DEBF0FBECDBFB3
:100B3000DF91CF911F910F91FF90EF90DF90CF90B9
:100B4000BF90AF909F908F907F906F905F904F90ED
:100B50000895EF92FF920F931F93E4EBEE2EF12C8A
:100B600010E000E00E94E3041F910F91FF90EF90CE
:100B7000089520E639E040E252E00C94A905FC011A
:100B8000718760870895FC0184858F3FD1F0718360
:100B9000608384899589860F971F2389222349F0D2
:100BA00026893789BC01621B730B808D918D861B52
:100BB000970B61E02385293009F060E040E00C9458
:100BC00099040895FC0146895789DB01A41BB50BE4
:100BD00024EB30E00E94DC0960567C4F8F4F9F4F22
:100BE000208D318D241B350B032E000C440B550B2F
:100BF0000E94BD09C90108954F925F926F927F9242
:100C0000AF92BF92CF92DF92EF92FF920F931F931A
:100C1000FC01A688B7880B2C000CCC08DD082B0142
:100C2000770F66087708808D918D092E000CAA0B2E
:100C3000BB0BBF93AF939F938F9314EBE12EF12CDB
:100C400000E010E020E030E0A901C301B2010E9401
:100C500039090F900F900F900F90CB011F910F91BA
:100C6000FF90EF90DF90CF90BF90AF907F906F900C
:100C70005F904F900895CF93DF93EC01EC85EF3FA9
:100C8000A1F0F0E0EE0FFF1FE057FE4F718360838D
:100C9000603981E0780724F4CE010E94FC05BC0194
:100CA000CE01DF91CF910C94C305DF91CF910895D0
:100CB000CF92DF92EF92FF921F93CF93DF93FC01CD
:100CC00012851123D9F1EC010E94EB07CD84DE845B
:100CD000EF84F8889B01AC012C193D094E095F098E
:100CE000C988DA88F12CE12C2C153D054E055F05ED
:100CF00078F06C817D81CE010E94C3051A86812F18
:100D0000DF91CF911F91FF90EF90DF90CF900895EA
:100D1000AE81BF810E94EE09A70196010E94BD0924
:100D20006A817B81620F731F88819981861797077B
:100D300019F0CE010E94C30510E0E1CF11E0DFCF32
:100D4000B29AEFE6F0E0808184608083E1E8F0E031
:100D500080818068808381E0809399010895FF926B
:100D60000F931F93CF93DF93DC011C96EC911C979C
:100D700011E0EF3F51F1F22E8A01EC01F0E0EE0FAD
:100D8000FF1FE057FE4F71836083CD010E94FC0579
:100D90009D838C8328813981821B930B9F838E8353
:100DA0001A8B098B3B832A830E94EB076D877E8712
:100DB0008F87988B1A8581E018272E813F81232BFE
:100DC00021F08A87F1100E94A006812FDF91CF9138
:100DD0001F910F91FF900895DF92EF92FF920F9372
:100DE0001F93CF93DF938C017B01EA01D22EFC018C
:100DF000608171810E94E2058E159F0561F4F80102
:100E0000828591E08927DF91CF911F910F91FF900B
:100E1000EF90DF900895209711F4C1E0D0E0D70162
:100E2000A81BB90BB7FF03C0B195A195B10928EE76
:100E300033E00E94DC099E0150E040E00E94BD09C1
:100E4000A9012D2DB701C801DF91CF911F910F91FD
:100E5000FF90EF90DF900C94AF06FC014085518528
:100E600021E00C94EC06EFE6F0E080818B7F80833C
:100E70001092990108952091980190E0E92FF0E0F7
:100E8000EE0FFF1FEC56FE4F0190F081E02D3097E2
:100E900019F08285811104C09F5F291778F780E0DF
:100EA0000895FC0112860E943B07811102C00C9438
:100EB00033070895CF93DF93C0E0D1E0809198018C
:100EC0008C1788F0EC2FF0E0EE0FFF1FEC56FE4F72
:100ED00080819181009729F00E945806811101C0FC
:100EE000D0E0CF5FEBCF8D2FDF91CF9108950E949F
:100EF0005A0781110C94330708951F920F920FB671
:100F00000F9211242F933F934F935F936F937F938F
:100F10008F939F93AF93BF93EF93FF930E947707B5
:100F2000FF91EF91BF91AF919F918F917F916F91C1
:100F30005F914F913F912F910F900FBE0F901F9097
:100F400018951F920F920FB60F9211242F933F9373
:100F50008F939F93AF93BF9380919B0190919C013E
:100F6000A0919D01B0919E0130919A0126E0230F3E
:100F70002D3758F50296A11DB11D20939A0180933B
:100F80009B0190939C01A0939D01B0939E01809141
:100F90009F019091A001A091A101B091A2010196A1
:100FA000A11DB11D80939F019093A001A093A10169
:100FB000B093A201BF91AF919F918F913F912F91DB
:100FC0000F900FBE0F901F90189529E8230F0396DE
:100FD000A11DB11DD2CF2FB7F89460919B017091E4
:100FE0009C0180919D0190919E012FBF08953FB774
:100FF000F89480919F019091A001A091A101B091DE
:10100000A20126B5A89B05C02F3F19F00196A11D8E
:10101000B11D3FBFBA2FA92F982F8827BC01CD0142
:10102000620F711D811D911D43E0660F771F881FA0
:10103000991F4A95D1F708958F929F92AF92BF92D0
:10104000CF92DF92EF92FF926B017C010E94F70733
:101050004B015C01C114D104E104F104E9F00E94E8
:101060008A090E94F707681979098A099B09683E6D
:1010700073408105910570F321E0C21AD108E1089F
:10108000F10888EE880E83E0981EA11CB11CC114E3
:10109000D104E104F10429F7FF90EF90DF90CF90A5
:1010A000BF90AF909F908F900895789484B583609F
:1010B00084BD85B5836085BDEEE6F0E0808181600A
:1010C0008083E1E8F0E082E080838081816080833A
:1010D000E0E8F0E0808181608083E1EBF0E08081F6
:1010E00084608083E0EBF0E080818160808386E82B
:1010F00080937A001092C1000895843081F028F422
:101100008230E9F08330F9F00895883071F0893049
:1011100091F08530B9F4809180008F7D03C080917B
:1011200080008F778093800008958091B0008F7742
:101130008093B00008958091B0008F7DF9CF84B581
:101140008F7784BD089584B58F7DFBCFCF93DF93D8
:1011500090E0FC01E158FF4F24918A569F4FFC011B
:1011600084918823C9F090E0880F991FFC01EF5308
:10117000FF4FA591B491FC01E954FF4FC591D49163
:1011800061110DC09FB7F8948C91209582238C93A8
:101190008881282328839FBFDF91CF9108956230F3
:1011A00051F49FB7F8943C91822F809583238C93C0
:1011B000E8812E2BEFCF8FB7F894EC912E2B2C9348
:1011C0008FBFEACF1F93CF93DF93282F30E0F90131
:1011D000E859FF4F8491F901E158FF4FD491F9018B
:1011E000EA56FF4FC491CC23A9F0162F81110E941B
:1011F0007D08EC2FF0E0EE0FFF1FE954FF4FA591A3
:10120000B4918FB7F894EC91111108C0D095DE23FA
:10121000DC938FBFDF91CF911F910895DE2BF8CF24
:10122000CF93DF93282F30E0F901E859FF4F8491E5
:10123000F901E158FF4FD491F901EA56FF4FC491EB
:10124000CC23A1F081110E947D08EC2FF0E0EE0F7D
:10125000FF1FE355FF4FA591B491EC91ED2381E081
:1012600090E009F480E0DF91CF91089580E090E074
:10127000FACF4F925F926F927F92AF92BF92CF92CE
:10128000DF92EF92FF920F931F93CF93DF93CDB72F
:10129000DEB729013A019B01AC0124193509460941
:1012A000570989899A89AB89BC89BC01CD016A1922
:1012B0007B098C099D090E948B09A80197012419BB
:1012C0003509460957090E94BD09CA01B9016A0DCD
:1012D0007B1D8C1D9D1DDF91CF911F910F91FF9064
:1012E000EF90DF90CF90BF90AF907F906F905F9026
:1012F0004F90089508950E9455080E947A090E940F
:10130000E000C0E0D0E00E94EE032097E1F30E94ED
:101310000000F9CF0895DB018F939F930E94E309AA
:10132000BF91AF91A29F800D911DA39F900DB29F81
:10133000900D11240895A1E21A2EAA1BBB1BFD01DA
:101340000DC0AA1FBB1FEE1FFF1FA217B307E407A4
:10135000F50720F0A21BB30BE40BF50B661F771FFC
:10136000881F991F1A9469F76095709580959095DC
:101370009B01AC01BD01CF010895052E97FB1EF422
:1013800000940E94D40957FD07D00E949B0907FCD6
:1013900003D04EF40C94D409509540953095219586
:1013A0003F4F4F4F5F4F0895909580957095619591
:1013B0007F4F8F4F9F4F08950E94FC09B7FF0895FC
:1013C000821B930B08950E94FC09A59F900DB49F6A
:1013D000900DA49F800D911D11240895B7FF0C94CA
:1013E000E3090E94E309821B930B0895EE0FFF1F90
:1013F0000590F491E02D0994A29FB001B39FC00124
:10140000A39F700D811D1124911DB29F700D811D30
:0A1410001124911D0895F894FFCFF8
:0C141A0043005A00710086009C00B400E2
:00000001FF
